{
  "_format": "hh-sol-artifact-1",
  "contractName": "WavePortal",
  "sourceName": "contracts/WavePortal.sol",
  "abi": [
    {
      "inputs": [],
      "stateMutability": "payable",
      "type": "constructor"
    },
    {
      "anonymous": false,
      "inputs": [
        {
          "indexed": true,
          "internalType": "address",
          "name": "from",
          "type": "address"
        },
        {
          "indexed": false,
          "internalType": "uint256",
          "name": "timestamp",
          "type": "uint256"
        },
        {
          "indexed": false,
          "internalType": "string",
          "name": "message",
          "type": "string"
        }
      ],
      "name": "NewWave",
      "type": "event"
    },
    {
      "inputs": [],
      "name": "getAllWaves",
      "outputs": [
        {
          "components": [
            {
              "internalType": "address",
              "name": "waver",
              "type": "address"
            },
            {
              "internalType": "string",
              "name": "message",
              "type": "string"
            },
            {
              "internalType": "uint256",
              "name": "timestamp",
              "type": "uint256"
            }
          ],
          "internalType": "struct WavePortal.Wave[]",
          "name": "",
          "type": "tuple[]"
        }
      ],
      "stateMutability": "view",
      "type": "function"
    },
    {
      "inputs": [],
      "name": "getTopWaver",
      "outputs": [
        {
          "internalType": "address",
          "name": "",
          "type": "address"
        }
      ],
      "stateMutability": "view",
      "type": "function"
    },
    {
      "inputs": [],
      "name": "getTotalWaves",
      "outputs": [
        {
          "internalType": "uint256",
          "name": "",
          "type": "uint256"
        }
      ],
      "stateMutability": "view",
      "type": "function"
    },
    {
      "inputs": [
        {
          "internalType": "address",
          "name": "_address",
          "type": "address"
        }
      ],
      "name": "getWaveCount",
      "outputs": [
        {
          "internalType": "uint256",
          "name": "",
          "type": "uint256"
        }
      ],
      "stateMutability": "view",
      "type": "function"
    },
    {
      "inputs": [
        {
          "internalType": "address",
          "name": "",
          "type": "address"
        }
      ],
      "name": "lastWavedAt",
      "outputs": [
        {
          "internalType": "uint256",
          "name": "",
          "type": "uint256"
        }
      ],
      "stateMutability": "view",
      "type": "function"
    },
    {
      "inputs": [
        {
          "internalType": "string",
          "name": "_message",
          "type": "string"
        }
      ],
      "name": "wave",
      "outputs": [],
      "stateMutability": "nonpayable",
      "type": "function"
    },
    {
      "inputs": [
        {
          "internalType": "address",
          "name": "",
          "type": "address"
        }
      ],
      "name": "waversRank",
      "outputs": [
        {
          "internalType": "uint256",
          "name": "",
          "type": "uint256"
        }
      ],
      "stateMutability": "view",
      "type": "function"
    }
  ],
  "bytecode": "0x608060405262000033604051806060016040528060338152602001620018f8603391396200003960201b62000aec1760201c565b620001cd565b620000d98160405160240162000050919062000146565b6040516020818303038152906040527f41304fac000000000000000000000000000000000000000000000000000000007bffffffffffffffffffffffffffffffffffffffffffffffffffffffff19166020820180517bffffffffffffffffffffffffffffffffffffffffffffffffffffffff8381831617835250505050620000dc60201b60201c565b50565b60008151905060006a636f6e736f6c652e6c6f679050602083016000808483855afa5050505050565b600062000112826200016a565b6200011e818562000175565b93506200013081856020860162000186565b6200013b81620001bc565b840191505092915050565b6000602082019050818103600083015262000162818462000105565b905092915050565b600081519050919050565b600082825260208201905092915050565b60005b83811015620001a657808201518184015260208101905062000189565b83811115620001b6576000848401525b50505050565b6000601f19601f8301169050919050565b61171b80620001dd6000396000f3fe608060405234801561001057600080fd5b506004361061007d5760003560e01c80639a2cdc081161005b5780639a2cdc08146100ec578063a42a46631461010a578063bd43a9081461013a578063fea1bdeb146101585761007d565b8063449d46c0146100825780635b2ae0871461009e57806387ec9b8d146100ce575b600080fd5b61009c60048036038101906100979190610ece565b610188565b005b6100b860048036038101906100b39190610ea5565b61082e565b6040516100c59190611354565b60405180910390f35b6100d66108f6565b6040516100e391906111f7565b60405180910390f35b6100f4610920565b6040516101019190611354565b60405180910390f35b610124600480360381019061011f9190610ea5565b61096b565b6040516101319190611354565b60405180910390f35b610142610983565b60405161014f9190611212565b60405180910390f35b610172600480360381019061016d9190610ea5565b610ad4565b60405161017f9190611354565b60405180910390f35b42601e600460003373ffffffffffffffffffffffffffffffffffffffff1673ffffffffffffffffffffffffffffffffffffffff168152602001908152602001600020546101d59190611471565b10610215576040517f08c379a000000000000000000000000000000000000000000000000000000000815260040161020c90611314565b60405180910390fd5b42600460003373ffffffffffffffffffffffffffffffffffffffff1673ffffffffffffffffffffffffffffffffffffffff16815260200190815260200160002081905550600180600082825461026b9190611471565b925050819055506001600360003373ffffffffffffffffffffffffffffffffffffffff1673ffffffffffffffffffffffffffffffffffffffff16815260200190815260200160002060008282546102c29190611471565b925050819055506001600360003373ffffffffffffffffffffffffffffffffffffffff1673ffffffffffffffffffffffffffffffffffffffff168152602001908152602001600020541115610395576103906040518060400160405280601681526020017f2573206861732077617665642025642074696d6573210000000000000000000081525033600360003373ffffffffffffffffffffffffffffffffffffffff1673ffffffffffffffffffffffffffffffffffffffff16815260200190815260200160002054610b85565b6103b8565b6103b76040518060600160405280602981526020016116bd6029913933610c24565b5b600560405180606001604052803373ffffffffffffffffffffffffffffffffffffffff16815260200183815260200142815250908060018154018082558091505060019003906000526020600020906003020160009091909190915060008201518160000160006101000a81548173ffffffffffffffffffffffffffffffffffffffff021916908373ffffffffffffffffffffffffffffffffffffffff1602179055506020820151816001019080519060200190610477929190610d85565b50604082015181600201555050600260009054906101000a900473ffffffffffffffffffffffffffffffffffffffff1673ffffffffffffffffffffffffffffffffffffffff163373ffffffffffffffffffffffffffffffffffffffff161461062657600360003373ffffffffffffffffffffffffffffffffffffffff1673ffffffffffffffffffffffffffffffffffffffff1681526020019081526020016000205460036000600260009054906101000a900473ffffffffffffffffffffffffffffffffffffffff1673ffffffffffffffffffffffffffffffffffffffff1673ffffffffffffffffffffffffffffffffffffffff1681526020019081526020016000205410156106255733600260006101000a81548173ffffffffffffffffffffffffffffffffffffffff021916908373ffffffffffffffffffffffffffffffffffffffff16021790555061062460405180606001604052806030815260200161168d6030913933600360003373ffffffffffffffffffffffffffffffffffffffff1673ffffffffffffffffffffffffffffffffffffffff16815260200190815260200160002054610b85565b5b5b6000606460005442446106399190611471565b6106439190611471565b61064d9190611577565b905061068e6040518060400160405280601681526020017f52616e646f6d20232067656e6572617465643a2025730000000000000000000081525082610cc0565b8060008190555060328110156107da576106dd6040518060400160405280600781526020017f257320776f6e210000000000000000000000000000000000000000000000000081525033610c24565b6000655af3107a400090504781111561072b576040517f08c379a000000000000000000000000000000000000000000000000000000000815260040161072290611334565b60405180910390fd5b60003373ffffffffffffffffffffffffffffffffffffffff1682604051610751906111e2565b60006040518083038185875af1925050503d806000811461078e576040519150601f19603f3d011682016040523d82523d6000602084013e610793565b606091505b50509050806107d7576040517f08c379a00000000000000000000000000000000000000000000000000000000081526004016107ce906112f4565b60405180910390fd5b50505b3373ffffffffffffffffffffffffffffffffffffffff167f5f7e16dc676677766a70e9c5628aa6c54ddb8b6e5188e2ae1e1f17f1ffbea716428460405161082292919061136f565b60405180910390a25050565b60006108af6040518060400160405280601681526020017f2573206861732077617665642025642074696d6573210000000000000000000081525083600360008673ffffffffffffffffffffffffffffffffffffffff1673ffffffffffffffffffffffffffffffffffffffff16815260200190815260200160002054610b85565b600360008373ffffffffffffffffffffffffffffffffffffffff1673ffffffffffffffffffffffffffffffffffffffff168152602001908152602001600020549050919050565b6000600260009054906101000a900473ffffffffffffffffffffffffffffffffffffffff16905090565b60006109636040518060400160405280601781526020017f5765206861766520256420746f74616c20776176657321000000000000000000815250600154610cc0565b600154905090565b60046020528060005260406000206000915090505481565b60606005805480602002602001604051908101604052809291908181526020016000905b82821015610acb57838290600052602060002090600302016040518060600160405290816000820160009054906101000a900473ffffffffffffffffffffffffffffffffffffffff1673ffffffffffffffffffffffffffffffffffffffff1673ffffffffffffffffffffffffffffffffffffffff168152602001600182018054610a3090611545565b80601f0160208091040260200160405190810160405280929190818152602001828054610a5c90611545565b8015610aa95780601f10610a7e57610100808354040283529160200191610aa9565b820191906000526020600020905b815481529060010190602001808311610a8c57829003601f168201915b50505050508152602001600282015481525050815260200190600101906109a7565b50505050905090565b60036020528060005260406000206000915090505481565b610b8281604051602401610b009190611234565b6040516020818303038152906040527f41304fac000000000000000000000000000000000000000000000000000000007bffffffffffffffffffffffffffffffffffffffffffffffffffffffff19166020820180517bffffffffffffffffffffffffffffffffffffffffffffffffffffffff8381831617835250505050610d5c565b50565b610c1f838383604051602401610b9d93929190611286565b6040516020818303038152906040527f07c81217000000000000000000000000000000000000000000000000000000007bffffffffffffffffffffffffffffffffffffffffffffffffffffffff19166020820180517bffffffffffffffffffffffffffffffffffffffffffffffffffffffff8381831617835250505050610d5c565b505050565b610cbc8282604051602401610c3a929190611256565b6040516020818303038152906040527f319af333000000000000000000000000000000000000000000000000000000007bffffffffffffffffffffffffffffffffffffffffffffffffffffffff19166020820180517bffffffffffffffffffffffffffffffffffffffffffffffffffffffff8381831617835250505050610d5c565b5050565b610d588282604051602401610cd69291906112c4565b6040516020818303038152906040527f9710a9d0000000000000000000000000000000000000000000000000000000007bffffffffffffffffffffffffffffffffffffffffffffffffffffffff19166020820180517bffffffffffffffffffffffffffffffffffffffffffffffffffffffff8381831617835250505050610d5c565b5050565b60008151905060006a636f6e736f6c652e6c6f679050602083016000808483855afa5050505050565b828054610d9190611545565b90600052602060002090601f016020900481019282610db35760008555610dfa565b82601f10610dcc57805160ff1916838001178555610dfa565b82800160010185558215610dfa579182015b82811115610df9578251825591602001919060010190610dde565b5b509050610e079190610e0b565b5090565b5b80821115610e24576000816000905550600101610e0c565b5090565b6000610e3b610e36846113d0565b61139f565b905082815260208101848484011115610e5357600080fd5b610e5e848285611503565b509392505050565b600081359050610e7581611675565b92915050565b600082601f830112610e8c57600080fd5b8135610e9c848260208601610e28565b91505092915050565b600060208284031215610eb757600080fd5b6000610ec584828501610e66565b91505092915050565b600060208284031215610ee057600080fd5b600082013567ffffffffffffffff811115610efa57600080fd5b610f0684828501610e7b565b91505092915050565b6000610f1b8383611174565b905092915050565b610f2c816114c7565b82525050565b610f3b816114c7565b82525050565b6000610f4c82611410565b610f568185611433565b935083602082028501610f6885611400565b8060005b85811015610fa45784840389528151610f858582610f0f565b9450610f9083611426565b925060208a01995050600181019050610f6c565b50829750879550505050505092915050565b6000610fc18261141b565b610fcb818561144f565b9350610fdb818560208601611512565b610fe481611664565b840191505092915050565b6000610ffa8261141b565b6110048185611460565b9350611014818560208601611512565b61101d81611664565b840191505092915050565b6000611035602783611460565b91507f4661696c656420746f207769746864726177206d6f6e65792066726f6d20636f60008301527f6e74726163742e000000000000000000000000000000000000000000000000006020830152604082019050919050565b600061109b602883611460565b91507f4d7573742077616974203330207365636f6e6473206265666f7265207472796960008301527f6e6720616761696e0000000000000000000000000000000000000000000000006020830152604082019050919050565b6000611101603583611460565b91507f547279696e6720746f207769746864726177206d6f7265206d6f6e657920746860008301527f616e207468657920636f6e7472616374206861732e00000000000000000000006020830152604082019050919050565b6000611167600083611444565b9150600082019050919050565b600060608301600083015161118c6000860182610f23565b50602083015184820360208601526111a48282610fb6565b91505060408301516111b960408601826111c4565b508091505092915050565b6111cd816114f9565b82525050565b6111dc816114f9565b82525050565b60006111ed8261115a565b9150819050919050565b600060208201905061120c6000830184610f32565b92915050565b6000602082019050818103600083015261122c8184610f41565b905092915050565b6000602082019050818103600083015261124e8184610fef565b905092915050565b600060408201905081810360008301526112708185610fef565b905061127f6020830184610f32565b9392505050565b600060608201905081810360008301526112a08186610fef565b90506112af6020830185610f32565b6112bc60408301846111d3565b949350505050565b600060408201905081810360008301526112de8185610fef565b90506112ed60208301846111d3565b9392505050565b6000602082019050818103600083015261130d81611028565b9050919050565b6000602082019050818103600083015261132d8161108e565b9050919050565b6000602082019050818103600083015261134d816110f4565b9050919050565b600060208201905061136960008301846111d3565b92915050565b600060408201905061138460008301856111d3565b81810360208301526113968184610fef565b90509392505050565b6000604051905081810181811067ffffffffffffffff821117156113c6576113c5611635565b5b8060405250919050565b600067ffffffffffffffff8211156113eb576113ea611635565b5b601f19601f8301169050602081019050919050565b6000819050602082019050919050565b600081519050919050565b600081519050919050565b6000602082019050919050565b600082825260208201905092915050565b600081905092915050565b600082825260208201905092915050565b600082825260208201905092915050565b600061147c826114f9565b9150611487836114f9565b9250827fffffffffffffffffffffffffffffffffffffffffffffffffffffffffffffffff038211156114bc576114bb6115a8565b5b828201905092915050565b60006114d2826114d9565b9050919050565b600073ffffffffffffffffffffffffffffffffffffffff82169050919050565b6000819050919050565b82818337600083830152505050565b60005b83811015611530578082015181840152602081019050611515565b8381111561153f576000848401525b50505050565b6000600282049050600182168061155d57607f821691505b6020821081141561157157611570611606565b5b50919050565b6000611582826114f9565b915061158d836114f9565b92508261159d5761159c6115d7565b5b828206905092915050565b7f4e487b7100000000000000000000000000000000000000000000000000000000600052601160045260246000fd5b7f4e487b7100000000000000000000000000000000000000000000000000000000600052601260045260246000fd5b7f4e487b7100000000000000000000000000000000000000000000000000000000600052602260045260246000fd5b7f4e487b7100000000000000000000000000000000000000000000000000000000600052604160045260246000fd5b6000601f19601f8301169050919050565b61167e816114c7565b811461168957600080fd5b5056fe576f6f686f6f6f2120257320697320746865206e657720746f702077617665722077697468202564207761766573212125732068617320776176656420666f72207468652066697273742074696d652120576f6f686f6f6f21a2646970667358221220475585147d973f5f50c6ef7551f76a1dbe05bcc00bac9fd6f695e8554fa81c5764736f6c6343000800003348657920796f21204920616d206120636f6e747261637420616e64204920616d20737575757575757570657220736d61727421",
  "linkReferences": {},
  "deployedLinkReferences": {}
}